{"contracts/DutchAuction.sol":{"dutchAuction":{"abi":[{"inputs":[{"internalType":"uint256","name":"_startingPrice","type":"uint256"},{"internalType":"uint256","name":"_discountRate","type":"uint256"},{"internalType":"address","name":"_nft","type":"address"},{"internalType":"uint256","name":"_nftId","type":"uint256"}],"stateMutability":"nonpayable","type":"constructor"},{"inputs":[],"name":"buy","outputs":[],"stateMutability":"payable","type":"function"},{"inputs":[],"name":"discountRate","outputs":[{"internalType":"uint256","name":"","type":"uint256"}],"stateMutability":"view","type":"function"},{"inputs":[],"name":"expiresAt","outputs":[{"internalType":"uint256","name":"","type":"uint256"}],"stateMutability":"view","type":"function"},{"inputs":[],"name":"getPrice","outputs":[{"internalType":"uint256","name":"","type":"uint256"}],"stateMutability":"view","type":"function"},{"inputs":[],"name":"nft","outputs":[{"internalType":"contract IERC721","name":"","type":"address"}],"stateMutability":"view","type":"function"},{"inputs":[],"name":"nftId","outputs":[{"internalType":"uint256","name":"","type":"uint256"}],"stateMutability":"view","type":"function"},{"inputs":[],"name":"seller","outputs":[{"internalType":"address payable","name":"","type":"address"}],"stateMutability":"view","type":"function"},{"inputs":[],"name":"startAt","outputs":[{"internalType":"uint256","name":"","type":"uint256"}],"stateMutability":"view","type":"function"},{"inputs":[],"name":"startingPrice","outputs":[{"internalType":"uint256","name":"","type":"uint256"}],"stateMutability":"view","type":"function"}],"evm":{"bytecode":{"linkReferences":{},"object":"6101606040523480156200001257600080fd5b5060405162000ce538038062000ce58339818101604052810190620000389190620001e0565b3373ffffffffffffffffffffffffffffffffffffffff1660c08173ffffffffffffffffffffffffffffffffffffffff16815250508360e0818152505082610100818152505042610120818152505062093a804262000097919062000281565b610140818152505062093a8083620000b09190620002bc565b841015620000f5576040517f08c379a0000000000000000000000000000000000000000000000000000000008152600401620000ec9062000368565b60405180910390fd5b8173ffffffffffffffffffffffffffffffffffffffff1660808173ffffffffffffffffffffffffffffffffffffffff16815250508060a08181525050505050506200038a565b600080fd5b6000819050919050565b620001558162000140565b81146200016157600080fd5b50565b60008151905062000175816200014a565b92915050565b600073ffffffffffffffffffffffffffffffffffffffff82169050919050565b6000620001a8826200017b565b9050919050565b620001ba816200019b565b8114620001c657600080fd5b50565b600081519050620001da81620001af565b92915050565b60008060008060808587031215620001fd57620001fc6200013b565b5b60006200020d8782880162000164565b9450506020620002208782880162000164565b93505060406200023387828801620001c9565b9250506060620002468782880162000164565b91505092959194509250565b7f4e487b7100000000000000000000000000000000000000000000000000000000600052601160045260246000fd5b60006200028e8262000140565b91506200029b8362000140565b9250828201905080821115620002b657620002b562000252565b5b92915050565b6000620002c98262000140565b9150620002d68362000140565b9250828202620002e68162000140565b915082820484148315176200030057620002ff62000252565b5b5092915050565b600082825260208201905092915050565b7f5374617274696e6720707269636520697320746f6f206c6f7700000000000000600082015250565b60006200035060198362000307565b91506200035d8262000318565b602082019050919050565b60006020820190508181036000830152620003838162000341565b9050919050565b60805160a05160c05160e0516101005161012051610140516108cf620004166000396000818161023701526102ef01526000818161025e01526104f801526000818161028f01526105400152600081816102bd015261051c0152600081816101ef01526103dc0152600081816103fe01526104d401526000818161021301526103a001526108cf6000f3fe6080604052600436106100865760003560e01c8063a6f2ae3a11610059578063a6f2ae3a14610137578063c6bc518214610141578063c74465651461016c578063d6fbf20214610197578063e6c0e6d5146101c257610086565b806308551a531461008b57806347ccca02146100b65780638622a689146100e157806398d5fdca1461010c575b600080fd5b34801561009757600080fd5b506100a06101ed565b6040516100ad91906105a3565b60405180910390f35b3480156100c257600080fd5b506100cb610211565b6040516100d8919061061d565b60405180910390f35b3480156100ed57600080fd5b506100f6610235565b6040516101039190610651565b60405180910390f35b34801561011857600080fd5b50610121610259565b60405161012e9190610651565b60405180910390f35b61013f6102ed565b005b34801561014d57600080fd5b506101566104d2565b6040516101639190610651565b60405180910390f35b34801561017857600080fd5b506101816104f6565b60405161018e9190610651565b60405180910390f35b3480156101a357600080fd5b506101ac61051a565b6040516101b99190610651565b60405180910390f35b3480156101ce57600080fd5b506101d761053e565b6040516101e49190610651565b60405180910390f35b7f000000000000000000000000000000000000000000000000000000000000000081565b7f000000000000000000000000000000000000000000000000000000000000000081565b7f000000000000000000000000000000000000000000000000000000000000000081565b6000807f000000000000000000000000000000000000000000000000000000000000000042610288919061069b565b90506000817f00000000000000000000000000000000000000000000000000000000000000006102b891906106cf565b9050807f00000000000000000000000000000000000000000000000000000000000000006102e6919061069b565b9250505090565b7f0000000000000000000000000000000000000000000000000000000000000000421061034f576040517f08c379a00000000000000000000000000000000000000000000000000000000081526004016103469061076e565b60405180910390fd5b6000610359610259565b90508034101561039e576040517f08c379a000000000000000000000000000000000000000000000000000000000815260040161039590610800565b60405180910390fd5b7f000000000000000000000000000000000000000000000000000000000000000073ffffffffffffffffffffffffffffffffffffffff166323b872dd7f0000000000000000000000000000000000000000000000000000000000000000337f00000000000000000000000000000000000000000000000000000000000000006040518463ffffffff1660e01b815260040161043b93929190610862565b600060405180830381600087803b15801561045557600080fd5b505af1158015610469573d6000803e3d6000fd5b505050506000813461047b919061069b565b905060008111156104ce573373ffffffffffffffffffffffffffffffffffffffff166108fc829081150290604051600060405180830381858888f193505050501580156104cc573d6000803e3d6000fd5b505b5050565b7f000000000000000000000000000000000000000000000000000000000000000081565b7f000000000000000000000000000000000000000000000000000000000000000081565b7f000000000000000000000000000000000000000000000000000000000000000081565b7f000000000000000000000000000000000000000000000000000000000000000081565b600073ffffffffffffffffffffffffffffffffffffffff82169050919050565b600061058d82610562565b9050919050565b61059d81610582565b82525050565b60006020820190506105b86000830184610594565b92915050565b6000819050919050565b60006105e36105de6105d984610562565b6105be565b610562565b9050919050565b60006105f5826105c8565b9050919050565b6000610607826105ea565b9050919050565b610617816105fc565b82525050565b6000602082019050610632600083018461060e565b92915050565b6000819050919050565b61064b81610638565b82525050565b60006020820190506106666000830184610642565b92915050565b7f4e487b7100000000000000000000000000000000000000000000000000000000600052601160045260246000fd5b60006106a682610638565b91506106b183610638565b92508282039050818111156106c9576106c861066c565b5b92915050565b60006106da82610638565b91506106e583610638565b92508282026106f381610638565b9150828204841483151761070a5761070961066c565b5b5092915050565b600082825260208201905092915050565b7f546869732061756374696f6e2068617320656e64656400000000000000000000600082015250565b6000610758601683610711565b915061076382610722565b602082019050919050565b600060208201905081810360008301526107878161074b565b9050919050565b7f54686520616d6f756e74206f66204554482073656e74206973206c657373207460008201527f68616e20746865207072696365206f6620746f6b656e00000000000000000000602082015250565b60006107ea603683610711565b91506107f58261078e565b604082019050919050565b60006020820190508181036000830152610819816107dd565b9050919050565b600061082b826105ea565b9050919050565b61083b81610820565b82525050565b600061084c82610562565b9050919050565b61085c81610841565b82525050565b60006060820190506108776000830186610832565b6108846020830185610853565b6108916040830184610642565b94935050505056fea2646970667358221220a17e6ecdb243c880a45fe4aa9d527a44fc721cb45c5ee073b2c2adf06d537f7464736f6c63430008140033","opcodes":"PUSH2 0x160 PUSH1 0x40 MSTORE CALLVALUE DUP1 ISZERO PUSH3 0x12 JUMPI PUSH1 0x0 DUP1 REVERT JUMPDEST POP PUSH1 0x40 MLOAD PUSH3 0xCE5 CODESIZE SUB DUP1 PUSH3 0xCE5 DUP4 CODECOPY DUP2 DUP2 ADD PUSH1 0x40 MSTORE DUP2 ADD SWAP1 PUSH3 0x38 SWAP2 SWAP1 PUSH3 0x1E0 JUMP JUMPDEST CALLER PUSH20 0xFFFFFFFFFFFFFFFFFFFFFFFFFFFFFFFFFFFFFFFF AND PUSH1 0xC0 DUP2 PUSH20 0xFFFFFFFFFFFFFFFFFFFFFFFFFFFFFFFFFFFFFFFF AND DUP2 MSTORE POP POP DUP4 PUSH1 0xE0 DUP2 DUP2 MSTORE POP POP DUP3 PUSH2 0x100 DUP2 DUP2 MSTORE POP POP TIMESTAMP PUSH2 0x120 DUP2 DUP2 MSTORE POP POP PUSH3 0x93A80 TIMESTAMP PUSH3 0x97 SWAP2 SWAP1 PUSH3 0x281 JUMP JUMPDEST PUSH2 0x140 DUP2 DUP2 MSTORE POP POP PUSH3 0x93A80 DUP4 PUSH3 0xB0 SWAP2 SWAP1 PUSH3 0x2BC JUMP JUMPDEST DUP5 LT ISZERO PUSH3 0xF5 JUMPI PUSH1 0x40 MLOAD PUSH32 0x8C379A000000000000000000000000000000000000000000000000000000000 DUP2 MSTORE PUSH1 0x4 ADD PUSH3 0xEC SWAP1 PUSH3 0x368 JUMP JUMPDEST PUSH1 0x40 MLOAD DUP1 SWAP2 SUB SWAP1 REVERT JUMPDEST DUP2 PUSH20 0xFFFFFFFFFFFFFFFFFFFFFFFFFFFFFFFFFFFFFFFF AND PUSH1 0x80 DUP2 PUSH20 0xFFFFFFFFFFFFFFFFFFFFFFFFFFFFFFFFFFFFFFFF AND DUP2 MSTORE POP POP DUP1 PUSH1 0xA0 DUP2 DUP2 MSTORE POP POP POP POP POP POP PUSH3 0x38A JUMP JUMPDEST PUSH1 0x0 DUP1 REVERT JUMPDEST PUSH1 0x0 DUP2 SWAP1 POP SWAP2 SWAP1 POP JUMP JUMPDEST PUSH3 0x155 DUP2 PUSH3 0x140 JUMP JUMPDEST DUP2 EQ PUSH3 0x161 JUMPI PUSH1 0x0 DUP1 REVERT JUMPDEST POP JUMP JUMPDEST PUSH1 0x0 DUP2 MLOAD SWAP1 POP PUSH3 0x175 DUP2 PUSH3 0x14A JUMP JUMPDEST SWAP3 SWAP2 POP POP JUMP JUMPDEST PUSH1 0x0 PUSH20 0xFFFFFFFFFFFFFFFFFFFFFFFFFFFFFFFFFFFFFFFF DUP3 AND SWAP1 POP SWAP2 SWAP1 POP JUMP JUMPDEST PUSH1 0x0 PUSH3 0x1A8 DUP3 PUSH3 0x17B JUMP JUMPDEST SWAP1 POP SWAP2 SWAP1 POP JUMP JUMPDEST PUSH3 0x1BA DUP2 PUSH3 0x19B JUMP JUMPDEST DUP2 EQ PUSH3 0x1C6 JUMPI PUSH1 0x0 DUP1 REVERT JUMPDEST POP JUMP JUMPDEST PUSH1 0x0 DUP2 MLOAD SWAP1 POP PUSH3 0x1DA DUP2 PUSH3 0x1AF JUMP JUMPDEST SWAP3 SWAP2 POP POP JUMP JUMPDEST PUSH1 0x0 DUP1 PUSH1 0x0 DUP1 PUSH1 0x80 DUP6 DUP8 SUB SLT ISZERO PUSH3 0x1FD JUMPI PUSH3 0x1FC PUSH3 0x13B JUMP JUMPDEST JUMPDEST PUSH1 0x0 PUSH3 0x20D DUP8 DUP3 DUP9 ADD PUSH3 0x164 JUMP JUMPDEST SWAP5 POP POP PUSH1 0x20 PUSH3 0x220 DUP8 DUP3 DUP9 ADD PUSH3 0x164 JUMP JUMPDEST SWAP4 POP POP PUSH1 0x40 PUSH3 0x233 DUP8 DUP3 DUP9 ADD PUSH3 0x1C9 JUMP JUMPDEST SWAP3 POP POP PUSH1 0x60 PUSH3 0x246 DUP8 DUP3 DUP9 ADD PUSH3 0x164 JUMP JUMPDEST SWAP2 POP POP SWAP3 SWAP6 SWAP2 SWAP5 POP SWAP3 POP JUMP JUMPDEST PUSH32 0x4E487B7100000000000000000000000000000000000000000000000000000000 PUSH1 0x0 MSTORE PUSH1 0x11 PUSH1 0x4 MSTORE PUSH1 0x24 PUSH1 0x0 REVERT JUMPDEST PUSH1 0x0 PUSH3 0x28E DUP3 PUSH3 0x140 JUMP JUMPDEST SWAP2 POP PUSH3 0x29B DUP4 PUSH3 0x140 JUMP JUMPDEST SWAP3 POP DUP3 DUP3 ADD SWAP1 POP DUP1 DUP3 GT ISZERO PUSH3 0x2B6 JUMPI PUSH3 0x2B5 PUSH3 0x252 JUMP JUMPDEST JUMPDEST SWAP3 SWAP2 POP POP JUMP JUMPDEST PUSH1 0x0 PUSH3 0x2C9 DUP3 PUSH3 0x140 JUMP JUMPDEST SWAP2 POP PUSH3 0x2D6 DUP4 PUSH3 0x140 JUMP JUMPDEST SWAP3 POP DUP3 DUP3 MUL PUSH3 0x2E6 DUP2 PUSH3 0x140 JUMP JUMPDEST SWAP2 POP DUP3 DUP3 DIV DUP5 EQ DUP4 ISZERO OR PUSH3 0x300 JUMPI PUSH3 0x2FF PUSH3 0x252 JUMP JUMPDEST JUMPDEST POP SWAP3 SWAP2 POP POP JUMP JUMPDEST PUSH1 0x0 DUP3 DUP3 MSTORE PUSH1 0x20 DUP3 ADD SWAP1 POP SWAP3 SWAP2 POP POP JUMP JUMPDEST PUSH32 0x5374617274696E6720707269636520697320746F6F206C6F7700000000000000 PUSH1 0x0 DUP3 ADD MSTORE POP JUMP JUMPDEST PUSH1 0x0 PUSH3 0x350 PUSH1 0x19 DUP4 PUSH3 0x307 JUMP JUMPDEST SWAP2 POP PUSH3 0x35D DUP3 PUSH3 0x318 JUMP JUMPDEST PUSH1 0x20 DUP3 ADD SWAP1 POP SWAP2 SWAP1 POP JUMP JUMPDEST PUSH1 0x0 PUSH1 0x20 DUP3 ADD SWAP1 POP DUP2 DUP2 SUB PUSH1 0x0 DUP4 ADD MSTORE PUSH3 0x383 DUP2 PUSH3 0x341 JUMP JUMPDEST SWAP1 POP SWAP2 SWAP1 POP JUMP JUMPDEST PUSH1 0x80 MLOAD PUSH1 0xA0 MLOAD PUSH1 0xC0 MLOAD PUSH1 0xE0 MLOAD PUSH2 0x100 MLOAD PUSH2 0x120 MLOAD PUSH2 0x140 MLOAD PUSH2 0x8CF PUSH3 0x416 PUSH1 0x0 CODECOPY PUSH1 0x0 DUP2 DUP2 PUSH2 0x237 ADD MSTORE PUSH2 0x2EF ADD MSTORE PUSH1 0x0 DUP2 DUP2 PUSH2 0x25E ADD MSTORE PUSH2 0x4F8 ADD MSTORE PUSH1 0x0 DUP2 DUP2 PUSH2 0x28F ADD MSTORE PUSH2 0x540 ADD MSTORE PUSH1 0x0 DUP2 DUP2 PUSH2 0x2BD ADD MSTORE PUSH2 0x51C ADD MSTORE PUSH1 0x0 DUP2 DUP2 PUSH2 0x1EF ADD MSTORE PUSH2 0x3DC ADD MSTORE PUSH1 0x0 DUP2 DUP2 PUSH2 0x3FE ADD MSTORE PUSH2 0x4D4 ADD MSTORE PUSH1 0x0 DUP2 DUP2 PUSH2 0x213 ADD MSTORE PUSH2 0x3A0 ADD MSTORE PUSH2 0x8CF PUSH1 0x0 RETURN INVALID PUSH1 0x80 PUSH1 0x40 MSTORE PUSH1 0x4 CALLDATASIZE LT PUSH2 0x86 JUMPI PUSH1 0x0 CALLDATALOAD PUSH1 0xE0 SHR DUP1 PUSH4 0xA6F2AE3A GT PUSH2 0x59 JUMPI DUP1 PUSH4 0xA6F2AE3A EQ PUSH2 0x137 JUMPI DUP1 PUSH4 0xC6BC5182 EQ PUSH2 0x141 JUMPI DUP1 PUSH4 0xC7446565 EQ PUSH2 0x16C JUMPI DUP1 PUSH4 0xD6FBF202 EQ PUSH2 0x197 JUMPI DUP1 PUSH4 0xE6C0E6D5 EQ PUSH2 0x1C2 JUMPI PUSH2 0x86 JUMP JUMPDEST DUP1 PUSH4 0x8551A53 EQ PUSH2 0x8B JUMPI DUP1 PUSH4 0x47CCCA02 EQ PUSH2 0xB6 JUMPI DUP1 PUSH4 0x8622A689 EQ PUSH2 0xE1 JUMPI DUP1 PUSH4 0x98D5FDCA EQ PUSH2 0x10C JUMPI JUMPDEST PUSH1 0x0 DUP1 REVERT JUMPDEST CALLVALUE DUP1 ISZERO PUSH2 0x97 JUMPI PUSH1 0x0 DUP1 REVERT JUMPDEST POP PUSH2 0xA0 PUSH2 0x1ED JUMP JUMPDEST PUSH1 0x40 MLOAD PUSH2 0xAD SWAP2 SWAP1 PUSH2 0x5A3 JUMP JUMPDEST PUSH1 0x40 MLOAD DUP1 SWAP2 SUB SWAP1 RETURN JUMPDEST CALLVALUE DUP1 ISZERO PUSH2 0xC2 JUMPI PUSH1 0x0 DUP1 REVERT JUMPDEST POP PUSH2 0xCB PUSH2 0x211 JUMP JUMPDEST PUSH1 0x40 MLOAD PUSH2 0xD8 SWAP2 SWAP1 PUSH2 0x61D JUMP JUMPDEST PUSH1 0x40 MLOAD DUP1 SWAP2 SUB SWAP1 RETURN JUMPDEST CALLVALUE DUP1 ISZERO PUSH2 0xED JUMPI PUSH1 0x0 DUP1 REVERT JUMPDEST POP PUSH2 0xF6 PUSH2 0x235 JUMP JUMPDEST PUSH1 0x40 MLOAD PUSH2 0x103 SWAP2 SWAP1 PUSH2 0x651 JUMP JUMPDEST PUSH1 0x40 MLOAD DUP1 SWAP2 SUB SWAP1 RETURN JUMPDEST CALLVALUE DUP1 ISZERO PUSH2 0x118 JUMPI PUSH1 0x0 DUP1 REVERT JUMPDEST POP PUSH2 0x121 PUSH2 0x259 JUMP JUMPDEST PUSH1 0x40 MLOAD PUSH2 0x12E SWAP2 SWAP1 PUSH2 0x651 JUMP JUMPDEST PUSH1 0x40 MLOAD DUP1 SWAP2 SUB SWAP1 RETURN JUMPDEST PUSH2 0x13F PUSH2 0x2ED JUMP JUMPDEST STOP JUMPDEST CALLVALUE DUP1 ISZERO PUSH2 0x14D JUMPI PUSH1 0x0 DUP1 REVERT JUMPDEST POP PUSH2 0x156 PUSH2 0x4D2 JUMP JUMPDEST PUSH1 0x40 MLOAD PUSH2 0x163 SWAP2 SWAP1 PUSH2 0x651 JUMP JUMPDEST PUSH1 0x40 MLOAD DUP1 SWAP2 SUB SWAP1 RETURN JUMPDEST CALLVALUE DUP1 ISZERO PUSH2 0x178 JUMPI PUSH1 0x0 DUP1 REVERT JUMPDEST POP PUSH2 0x181 PUSH2 0x4F6 JUMP JUMPDEST PUSH1 0x40 MLOAD PUSH2 0x18E SWAP2 SWAP1 PUSH2 0x651 JUMP JUMPDEST PUSH1 0x40 MLOAD DUP1 SWAP2 SUB SWAP1 RETURN JUMPDEST CALLVALUE DUP1 ISZERO PUSH2 0x1A3 JUMPI PUSH1 0x0 DUP1 REVERT JUMPDEST POP PUSH2 0x1AC PUSH2 0x51A JUMP JUMPDEST PUSH1 0x40 MLOAD PUSH2 0x1B9 SWAP2 SWAP1 PUSH2 0x651 JUMP JUMPDEST PUSH1 0x40 MLOAD DUP1 SWAP2 SUB SWAP1 RETURN JUMPDEST CALLVALUE DUP1 ISZERO PUSH2 0x1CE JUMPI PUSH1 0x0 DUP1 REVERT JUMPDEST POP PUSH2 0x1D7 PUSH2 0x53E JUMP JUMPDEST PUSH1 0x40 MLOAD PUSH2 0x1E4 SWAP2 SWAP1 PUSH2 0x651 JUMP JUMPDEST PUSH1 0x40 MLOAD DUP1 SWAP2 SUB SWAP1 RETURN JUMPDEST PUSH32 0x0 DUP2 JUMP JUMPDEST PUSH32 0x0 DUP2 JUMP JUMPDEST PUSH32 0x0 DUP2 JUMP JUMPDEST PUSH1 0x0 DUP1 PUSH32 0x0 TIMESTAMP PUSH2 0x288 SWAP2 SWAP1 PUSH2 0x69B JUMP JUMPDEST SWAP1 POP PUSH1 0x0 DUP2 PUSH32 0x0 PUSH2 0x2B8 SWAP2 SWAP1 PUSH2 0x6CF JUMP JUMPDEST SWAP1 POP DUP1 PUSH32 0x0 PUSH2 0x2E6 SWAP2 SWAP1 PUSH2 0x69B JUMP JUMPDEST SWAP3 POP POP POP SWAP1 JUMP JUMPDEST PUSH32 0x0 TIMESTAMP LT PUSH2 0x34F JUMPI PUSH1 0x40 MLOAD PUSH32 0x8C379A000000000000000000000000000000000000000000000000000000000 DUP2 MSTORE PUSH1 0x4 ADD PUSH2 0x346 SWAP1 PUSH2 0x76E JUMP JUMPDEST PUSH1 0x40 MLOAD DUP1 SWAP2 SUB SWAP1 REVERT JUMPDEST PUSH1 0x0 PUSH2 0x359 PUSH2 0x259 JUMP JUMPDEST SWAP1 POP DUP1 CALLVALUE LT ISZERO PUSH2 0x39E JUMPI PUSH1 0x40 MLOAD PUSH32 0x8C379A000000000000000000000000000000000000000000000000000000000 DUP2 MSTORE PUSH1 0x4 ADD PUSH2 0x395 SWAP1 PUSH2 0x800 JUMP JUMPDEST PUSH1 0x40 MLOAD DUP1 SWAP2 SUB SWAP1 REVERT JUMPDEST PUSH32 0x0 PUSH20 0xFFFFFFFFFFFFFFFFFFFFFFFFFFFFFFFFFFFFFFFF AND PUSH4 0x23B872DD PUSH32 0x0 CALLER PUSH32 0x0 PUSH1 0x40 MLOAD DUP5 PUSH4 0xFFFFFFFF AND PUSH1 0xE0 SHL DUP2 MSTORE PUSH1 0x4 ADD PUSH2 0x43B SWAP4 SWAP3 SWAP2 SWAP1 PUSH2 0x862 JUMP JUMPDEST PUSH1 0x0 PUSH1 0x40 MLOAD DUP1 DUP4 SUB DUP2 PUSH1 0x0 DUP8 DUP1 EXTCODESIZE ISZERO DUP1 ISZERO PUSH2 0x455 JUMPI PUSH1 0x0 DUP1 REVERT JUMPDEST POP GAS CALL ISZERO DUP1 ISZERO PUSH2 0x469 JUMPI RETURNDATASIZE PUSH1 0x0 DUP1 RETURNDATACOPY RETURNDATASIZE PUSH1 0x0 REVERT JUMPDEST POP POP POP POP PUSH1 0x0 DUP2 CALLVALUE PUSH2 0x47B SWAP2 SWAP1 PUSH2 0x69B JUMP JUMPDEST SWAP1 POP PUSH1 0x0 DUP2 GT ISZERO PUSH2 0x4CE JUMPI CALLER PUSH20 0xFFFFFFFFFFFFFFFFFFFFFFFFFFFFFFFFFFFFFFFF AND PUSH2 0x8FC DUP3 SWAP1 DUP2 ISZERO MUL SWAP1 PUSH1 0x40 MLOAD PUSH1 0x0 PUSH1 0x40 MLOAD DUP1 DUP4 SUB DUP2 DUP6 DUP9 DUP9 CALL SWAP4 POP POP POP POP ISZERO DUP1 ISZERO PUSH2 0x4CC JUMPI RETURNDATASIZE PUSH1 0x0 DUP1 RETURNDATACOPY RETURNDATASIZE PUSH1 0x0 REVERT JUMPDEST POP JUMPDEST POP POP JUMP JUMPDEST PUSH32 0x0 DUP2 JUMP JUMPDEST PUSH32 0x0 DUP2 JUMP JUMPDEST PUSH32 0x0 DUP2 JUMP JUMPDEST PUSH32 0x0 DUP2 JUMP JUMPDEST PUSH1 0x0 PUSH20 0xFFFFFFFFFFFFFFFFFFFFFFFFFFFFFFFFFFFFFFFF DUP3 AND SWAP1 POP SWAP2 SWAP1 POP JUMP JUMPDEST PUSH1 0x0 PUSH2 0x58D DUP3 PUSH2 0x562 JUMP JUMPDEST SWAP1 POP SWAP2 SWAP1 POP JUMP JUMPDEST PUSH2 0x59D DUP2 PUSH2 0x582 JUMP JUMPDEST DUP3 MSTORE POP POP JUMP JUMPDEST PUSH1 0x0 PUSH1 0x20 DUP3 ADD SWAP1 POP PUSH2 0x5B8 PUSH1 0x0 DUP4 ADD DUP5 PUSH2 0x594 JUMP JUMPDEST SWAP3 SWAP2 POP POP JUMP JUMPDEST PUSH1 0x0 DUP2 SWAP1 POP SWAP2 SWAP1 POP JUMP JUMPDEST PUSH1 0x0 PUSH2 0x5E3 PUSH2 0x5DE PUSH2 0x5D9 DUP5 PUSH2 0x562 JUMP JUMPDEST PUSH2 0x5BE JUMP JUMPDEST PUSH2 0x562 JUMP JUMPDEST SWAP1 POP SWAP2 SWAP1 POP JUMP JUMPDEST PUSH1 0x0 PUSH2 0x5F5 DUP3 PUSH2 0x5C8 JUMP JUMPDEST SWAP1 POP SWAP2 SWAP1 POP JUMP JUMPDEST PUSH1 0x0 PUSH2 0x607 DUP3 PUSH2 0x5EA JUMP JUMPDEST SWAP1 POP SWAP2 SWAP1 POP JUMP JUMPDEST PUSH2 0x617 DUP2 PUSH2 0x5FC JUMP JUMPDEST DUP3 MSTORE POP POP JUMP JUMPDEST PUSH1 0x0 PUSH1 0x20 DUP3 ADD SWAP1 POP PUSH2 0x632 PUSH1 0x0 DUP4 ADD DUP5 PUSH2 0x60E JUMP JUMPDEST SWAP3 SWAP2 POP POP JUMP JUMPDEST PUSH1 0x0 DUP2 SWAP1 POP SWAP2 SWAP1 POP JUMP JUMPDEST PUSH2 0x64B DUP2 PUSH2 0x638 JUMP JUMPDEST DUP3 MSTORE POP POP JUMP JUMPDEST PUSH1 0x0 PUSH1 0x20 DUP3 ADD SWAP1 POP PUSH2 0x666 PUSH1 0x0 DUP4 ADD DUP5 PUSH2 0x642 JUMP JUMPDEST SWAP3 SWAP2 POP POP JUMP JUMPDEST PUSH32 0x4E487B7100000000000000000000000000000000000000000000000000000000 PUSH1 0x0 MSTORE PUSH1 0x11 PUSH1 0x4 MSTORE PUSH1 0x24 PUSH1 0x0 REVERT JUMPDEST PUSH1 0x0 PUSH2 0x6A6 DUP3 PUSH2 0x638 JUMP JUMPDEST SWAP2 POP PUSH2 0x6B1 DUP4 PUSH2 0x638 JUMP JUMPDEST SWAP3 POP DUP3 DUP3 SUB SWAP1 POP DUP2 DUP2 GT ISZERO PUSH2 0x6C9 JUMPI PUSH2 0x6C8 PUSH2 0x66C JUMP JUMPDEST JUMPDEST SWAP3 SWAP2 POP POP JUMP JUMPDEST PUSH1 0x0 PUSH2 0x6DA DUP3 PUSH2 0x638 JUMP JUMPDEST SWAP2 POP PUSH2 0x6E5 DUP4 PUSH2 0x638 JUMP JUMPDEST SWAP3 POP DUP3 DUP3 MUL PUSH2 0x6F3 DUP2 PUSH2 0x638 JUMP JUMPDEST SWAP2 POP DUP3 DUP3 DIV DUP5 EQ DUP4 ISZERO OR PUSH2 0x70A JUMPI PUSH2 0x709 PUSH2 0x66C JUMP JUMPDEST JUMPDEST POP SWAP3 SWAP2 POP POP JUMP JUMPDEST PUSH1 0x0 DUP3 DUP3 MSTORE PUSH1 0x20 DUP3 ADD SWAP1 POP SWAP3 SWAP2 POP POP JUMP JUMPDEST PUSH32 0x546869732061756374696F6E2068617320656E64656400000000000000000000 PUSH1 0x0 DUP3 ADD MSTORE POP JUMP JUMPDEST PUSH1 0x0 PUSH2 0x758 PUSH1 0x16 DUP4 PUSH2 0x711 JUMP JUMPDEST SWAP2 POP PUSH2 0x763 DUP3 PUSH2 0x722 JUMP JUMPDEST PUSH1 0x20 DUP3 ADD SWAP1 POP SWAP2 SWAP1 POP JUMP JUMPDEST PUSH1 0x0 PUSH1 0x20 DUP3 ADD SWAP1 POP DUP2 DUP2 SUB PUSH1 0x0 DUP4 ADD MSTORE PUSH2 0x787 DUP2 PUSH2 0x74B JUMP JUMPDEST SWAP1 POP SWAP2 SWAP1 POP JUMP JUMPDEST PUSH32 0x54686520616D6F756E74206F66204554482073656E74206973206C6573732074 PUSH1 0x0 DUP3 ADD MSTORE PUSH32 0x68616E20746865207072696365206F6620746F6B656E00000000000000000000 PUSH1 0x20 DUP3 ADD MSTORE POP JUMP JUMPDEST PUSH1 0x0 PUSH2 0x7EA PUSH1 0x36 DUP4 PUSH2 0x711 JUMP JUMPDEST SWAP2 POP PUSH2 0x7F5 DUP3 PUSH2 0x78E JUMP JUMPDEST PUSH1 0x40 DUP3 ADD SWAP1 POP SWAP2 SWAP1 POP JUMP JUMPDEST PUSH1 0x0 PUSH1 0x20 DUP3 ADD SWAP1 POP DUP2 DUP2 SUB PUSH1 0x0 DUP4 ADD MSTORE PUSH2 0x819 DUP2 PUSH2 0x7DD JUMP JUMPDEST SWAP1 POP SWAP2 SWAP1 POP JUMP JUMPDEST PUSH1 0x0 PUSH2 0x82B DUP3 PUSH2 0x5EA JUMP JUMPDEST SWAP1 POP SWAP2 SWAP1 POP JUMP JUMPDEST PUSH2 0x83B DUP2 PUSH2 0x820 JUMP JUMPDEST DUP3 MSTORE POP POP JUMP JUMPDEST PUSH1 0x0 PUSH2 0x84C DUP3 PUSH2 0x562 JUMP JUMPDEST SWAP1 POP SWAP2 SWAP1 POP JUMP JUMPDEST PUSH2 0x85C DUP2 PUSH2 0x841 JUMP JUMPDEST DUP3 MSTORE POP POP JUMP JUMPDEST PUSH1 0x0 PUSH1 0x60 DUP3 ADD SWAP1 POP PUSH2 0x877 PUSH1 0x0 DUP4 ADD DUP7 PUSH2 0x832 JUMP JUMPDEST PUSH2 0x884 PUSH1 0x20 DUP4 ADD DUP6 PUSH2 0x853 JUMP JUMPDEST PUSH2 0x891 PUSH1 0x40 DUP4 ADD DUP5 PUSH2 0x642 JUMP JUMPDEST SWAP5 SWAP4 POP POP POP POP JUMP INVALID LOG2 PUSH5 0x6970667358 0x22 SLT KECCAK256 LOG1 PUSH31 0x6ECDB243C880A45FE4AA9D527A44FC721CB45C5EE073B2C2ADF06D537F7464 PUSH20 0x6F6C634300081400330000000000000000000000 "},"methodIdentifiers":{"buy()":"a6f2ae3a","discountRate()":"e6c0e6d5","expiresAt()":"8622a689","getPrice()":"98d5fdca","nft()":"47ccca02","nftId()":"c6bc5182","seller()":"08551a53","startAt()":"c7446565","startingPrice()":"d6fbf202"}}}}}