{
  "_format": "hh-sol-artifact-1",
  "contractName": "dutchAuction",
  "sourceName": "contracts/DutchAuction.sol",
  "abi": [
    {
      "inputs": [
        {
          "internalType": "uint256",
          "name": "_startingPrice",
          "type": "uint256"
        },
        {
          "internalType": "uint256",
          "name": "_discountRate",
          "type": "uint256"
        },
        {
          "internalType": "address",
          "name": "_nft",
          "type": "address"
        },
        {
          "internalType": "uint256",
          "name": "_nftId",
          "type": "uint256"
        }
      ],
      "stateMutability": "nonpayable",
      "type": "constructor"
    },
    {
      "inputs": [],
      "name": "buy",
      "outputs": [],
      "stateMutability": "payable",
      "type": "function"
    },
    {
      "inputs": [],
      "name": "discountRate",
      "outputs": [
        {
          "internalType": "uint256",
          "name": "",
          "type": "uint256"
        }
      ],
      "stateMutability": "view",
      "type": "function"
    },
    {
      "inputs": [],
      "name": "expiresAt",
      "outputs": [
        {
          "internalType": "uint256",
          "name": "",
          "type": "uint256"
        }
      ],
      "stateMutability": "view",
      "type": "function"
    },
    {
      "inputs": [],
      "name": "getPrice",
      "outputs": [
        {
          "internalType": "uint256",
          "name": "",
          "type": "uint256"
        }
      ],
      "stateMutability": "view",
      "type": "function"
    },
    {
      "inputs": [],
      "name": "nft",
      "outputs": [
        {
          "internalType": "contract IERC721",
          "name": "",
          "type": "address"
        }
      ],
      "stateMutability": "view",
      "type": "function"
    },
    {
      "inputs": [],
      "name": "nftId",
      "outputs": [
        {
          "internalType": "uint256",
          "name": "",
          "type": "uint256"
        }
      ],
      "stateMutability": "view",
      "type": "function"
    },
    {
      "inputs": [],
      "name": "seller",
      "outputs": [
        {
          "internalType": "address payable",
          "name": "",
          "type": "address"
        }
      ],
      "stateMutability": "view",
      "type": "function"
    },
    {
      "inputs": [],
      "name": "startAt",
      "outputs": [
        {
          "internalType": "uint256",
          "name": "",
          "type": "uint256"
        }
      ],
      "stateMutability": "view",
      "type": "function"
    },
    {
      "inputs": [],
      "name": "startingPrice",
      "outputs": [
        {
          "internalType": "uint256",
          "name": "",
          "type": "uint256"
        }
      ],
      "stateMutability": "view",
      "type": "function"
    }
  ],
  "bytecode": "0x6101606040523480156200001257600080fd5b5060405162000ce538038062000ce58339818101604052810190620000389190620001e0565b3373ffffffffffffffffffffffffffffffffffffffff1660c08173ffffffffffffffffffffffffffffffffffffffff16815250508360e0818152505082610100818152505042610120818152505062093a804262000097919062000281565b610140818152505062093a8083620000b09190620002bc565b841015620000f5576040517f08c379a0000000000000000000000000000000000000000000000000000000008152600401620000ec9062000368565b60405180910390fd5b8173ffffffffffffffffffffffffffffffffffffffff1660808173ffffffffffffffffffffffffffffffffffffffff16815250508060a08181525050505050506200038a565b600080fd5b6000819050919050565b620001558162000140565b81146200016157600080fd5b50565b60008151905062000175816200014a565b92915050565b600073ffffffffffffffffffffffffffffffffffffffff82169050919050565b6000620001a8826200017b565b9050919050565b620001ba816200019b565b8114620001c657600080fd5b50565b600081519050620001da81620001af565b92915050565b60008060008060808587031215620001fd57620001fc6200013b565b5b60006200020d8782880162000164565b9450506020620002208782880162000164565b93505060406200023387828801620001c9565b9250506060620002468782880162000164565b91505092959194509250565b7f4e487b7100000000000000000000000000000000000000000000000000000000600052601160045260246000fd5b60006200028e8262000140565b91506200029b8362000140565b9250828201905080821115620002b657620002b562000252565b5b92915050565b6000620002c98262000140565b9150620002d68362000140565b9250828202620002e68162000140565b915082820484148315176200030057620002ff62000252565b5b5092915050565b600082825260208201905092915050565b7f5374617274696e6720707269636520697320746f6f206c6f7700000000000000600082015250565b60006200035060198362000307565b91506200035d8262000318565b602082019050919050565b60006020820190508181036000830152620003838162000341565b9050919050565b60805160a05160c05160e0516101005161012051610140516108cf620004166000396000818161023701526102ef01526000818161025e01526104f801526000818161028f01526105400152600081816102bd015261051c0152600081816101ef01526103dc0152600081816103fe01526104d401526000818161021301526103a001526108cf6000f3fe6080604052600436106100865760003560e01c8063a6f2ae3a11610059578063a6f2ae3a14610137578063c6bc518214610141578063c74465651461016c578063d6fbf20214610197578063e6c0e6d5146101c257610086565b806308551a531461008b57806347ccca02146100b65780638622a689146100e157806398d5fdca1461010c575b600080fd5b34801561009757600080fd5b506100a06101ed565b6040516100ad91906105a3565b60405180910390f35b3480156100c257600080fd5b506100cb610211565b6040516100d8919061061d565b60405180910390f35b3480156100ed57600080fd5b506100f6610235565b6040516101039190610651565b60405180910390f35b34801561011857600080fd5b50610121610259565b60405161012e9190610651565b60405180910390f35b61013f6102ed565b005b34801561014d57600080fd5b506101566104d2565b6040516101639190610651565b60405180910390f35b34801561017857600080fd5b506101816104f6565b60405161018e9190610651565b60405180910390f35b3480156101a357600080fd5b506101ac61051a565b6040516101b99190610651565b60405180910390f35b3480156101ce57600080fd5b506101d761053e565b6040516101e49190610651565b60405180910390f35b7f000000000000000000000000000000000000000000000000000000000000000081565b7f000000000000000000000000000000000000000000000000000000000000000081565b7f000000000000000000000000000000000000000000000000000000000000000081565b6000807f000000000000000000000000000000000000000000000000000000000000000042610288919061069b565b90506000817f00000000000000000000000000000000000000000000000000000000000000006102b891906106cf565b9050807f00000000000000000000000000000000000000000000000000000000000000006102e6919061069b565b9250505090565b7f0000000000000000000000000000000000000000000000000000000000000000421061034f576040517f08c379a00000000000000000000000000000000000000000000000000000000081526004016103469061076e565b60405180910390fd5b6000610359610259565b90508034101561039e576040517f08c379a000000000000000000000000000000000000000000000000000000000815260040161039590610800565b60405180910390fd5b7f000000000000000000000000000000000000000000000000000000000000000073ffffffffffffffffffffffffffffffffffffffff166323b872dd7f0000000000000000000000000000000000000000000000000000000000000000337f00000000000000000000000000000000000000000000000000000000000000006040518463ffffffff1660e01b815260040161043b93929190610862565b600060405180830381600087803b15801561045557600080fd5b505af1158015610469573d6000803e3d6000fd5b505050506000813461047b919061069b565b905060008111156104ce573373ffffffffffffffffffffffffffffffffffffffff166108fc829081150290604051600060405180830381858888f193505050501580156104cc573d6000803e3d6000fd5b505b5050565b7f000000000000000000000000000000000000000000000000000000000000000081565b7f000000000000000000000000000000000000000000000000000000000000000081565b7f000000000000000000000000000000000000000000000000000000000000000081565b7f000000000000000000000000000000000000000000000000000000000000000081565b600073ffffffffffffffffffffffffffffffffffffffff82169050919050565b600061058d82610562565b9050919050565b61059d81610582565b82525050565b60006020820190506105b86000830184610594565b92915050565b6000819050919050565b60006105e36105de6105d984610562565b6105be565b610562565b9050919050565b60006105f5826105c8565b9050919050565b6000610607826105ea565b9050919050565b610617816105fc565b82525050565b6000602082019050610632600083018461060e565b92915050565b6000819050919050565b61064b81610638565b82525050565b60006020820190506106666000830184610642565b92915050565b7f4e487b7100000000000000000000000000000000000000000000000000000000600052601160045260246000fd5b60006106a682610638565b91506106b183610638565b92508282039050818111156106c9576106c861066c565b5b92915050565b60006106da82610638565b91506106e583610638565b92508282026106f381610638565b9150828204841483151761070a5761070961066c565b5b5092915050565b600082825260208201905092915050565b7f546869732061756374696f6e2068617320656e64656400000000000000000000600082015250565b6000610758601683610711565b915061076382610722565b602082019050919050565b600060208201905081810360008301526107878161074b565b9050919050565b7f54686520616d6f756e74206f66204554482073656e74206973206c657373207460008201527f68616e20746865207072696365206f6620746f6b656e00000000000000000000602082015250565b60006107ea603683610711565b91506107f58261078e565b604082019050919050565b60006020820190508181036000830152610819816107dd565b9050919050565b600061082b826105ea565b9050919050565b61083b81610820565b82525050565b600061084c82610562565b9050919050565b61085c81610841565b82525050565b60006060820190506108776000830186610832565b6108846020830185610853565b6108916040830184610642565b94935050505056fea2646970667358221220a17e6ecdb243c880a45fe4aa9d527a44fc721cb45c5ee073b2c2adf06d537f7464736f6c63430008140033",
  "linkReferences": {},
  "deployedLinkReferences": {}
}